:020000040000fa
:080000000002040000000000f2
:020000040000fa
:04000800c80200002a
:020000040000fa
:04000c00c802000026
:020000040000fa
:04001000c802000022
:020000040000fa
:04001400c80200001e
:020000040000fa
:04001800c80200001a
:020000040000fa
:04001c00c802000016
:020000040000fa
:04002000c802000012
:020000040000fa
:04002400c80200000e
:020000040000fa
:04002800c80200000a
:020000040000fa
:04002c00c802000006
:020000040000fa
:04003000c802000002
:020000040000fa
:04003400c8020000fe
:020000040000fa
:04003800c8020000fa
:020000040000fa
:04003c00c8020000f6
:020000040000fa
:04004000c8020000f2
:020000040000fa
:04004400c8020000ee
:020000040000fa
:04004800c8020000ea
:020000040000fa
:04004c00c8020000e6
:020000040000fa
:04005000c8020000e2
:020000040000fa
:04005400c8020000de
:020000040000fa
:04005800c8020000da
:020000040000fa
:04005c00c8020000d6
:020000040000fa
:04006000c8020000d2
:020000040000fa
:04006400c8020000ce
:020000040000fa
:04006800c8020000ca
:020000040000fa
:04006c00c8020000c6
:020000040000fa
:04007000c8020000c2
:020000040000fa
:04007400c8020000be
:020000040000fa
:04007800c8020000ba
:020000040000fa
:04007c00c8020000b6
:020000040000fa
:04008000c8020000b2
:020000040000fa
:04008400c8020000ae
:020000040000fa
:04008800c8020000aa
:020000040000fa
:04008c00c8020000a6
:020000040000fa
:04009000c8020000a2
:020000040000fa
:04009400c80200009e
:020000040000fa
:04009800c80200009a
:020000040000fa
:04009c00c802000096
:020000040000fa
:0400a000c802000092
:020000040000fa
:0400a400c80200008e
:020000040000fa
:0400a800c80200008a
:020000040000fa
:0400ac00c802000086
:020000040000fa
:0400b000c802000082
:020000040000fa
:0400b400c80200007e
:020000040000fa
:0400b800c80200007a
:020000040000fa
:0400bc00c802000076
:020000040000fa
:0400c000c802000072
:020000040000fa
:0400c400c80200006e
:020000040000fa
:0400c800c80200006a
:020000040000fa
:0400cc00c802000066
:020000040000fa
:0400d000c802000062
:020000040000fa
:0400d400c80200005e
:020000040000fa
:0400d800c80200005a
:020000040000fa
:0400dc00c802000056
:020000040000fa
:0400e000c802000052
:020000040000fa
:0400e400c80200004e
:020000040000fa
:0400e800c80200004a
:020000040000fa
:0400ec00c802000046
:020000040000fa
:0400f000c802000042
:020000040000fa
:0400f400c80200003e
:020000040000fa
:0400f800c80200003a
:020000040000fa
:0400fc00c802000036
:020000040000fa
:04010000c802000031
:020000040000fa
:04010400c80200002d
:020000040000fa
:04010800c802000029
:020000040000fa
:04010c00c802000025
:020000040000fa
:04011000c802000021
:020000040000fa
:04011400c80200001d
:020000040000fa
:04011800c802000019
:020000040000fa
:04011c00c802000015
:020000040000fa
:04012000c802000011
:020000040000fa
:04012400c80200000d
:020000040000fa
:04012800c802000009
:020000040000fa
:04012c00c802000005
:020000040000fa
:04013000c802000001
:020000040000fa
:04013400c8020000fd
:020000040000fa
:04013800c8020000f9
:020000040000fa
:04013c00c8020000f5
:020000040000fa
:04014000c8020000f1
:020000040000fa
:04014400c8020000ed
:020000040000fa
:04014800c8020000e9
:020000040000fa
:04014c00c8020000e5
:020000040000fa
:04015000c8020000e1
:020000040000fa
:04020800c802000028
:020000040000fa
:04020c00c802000024
:020000040000fa
:04021000c802000020
:020000040000fa
:04021400c80200001c
:020000040000fa
:04021800c802000018
:020000040000fa
:04021c00c802000014
:020000040000fa
:04022000c802000010
:020000040000fa
:04022400c80200000c
:020000040000fa
:04022800c802000008
:020000040000fa
:04022c00c802000004
:020000040000fa
:04023000c802000000
:020000040000fa
:04023400c8020000fc
:020000040000fa
:04023800c8020000f8
:020000040000fa
:04023c00c8020000f4
:020000040000fa
:04024000c8020000f0
:020000040000fa
:04024400c8020000ec
:020000040000fa
:04024800c8020000e8
:020000040000fa
:04024c00c8020000e4
:020000040000fa
:04025000c8020000e0
:020000040000fa
:04025400c8020000dc
:020000040000fa
:04025800c8020000d8
:020000040000fa
:04025c00c8020000d4
:020000040000fa
:04026000c8020000d0
:020000040000fa
:04026400c8020000cc
:020000040000fa
:04026800c8020000c8
:020000040000fa
:04026c00c8020000c4
:020000040000fa
:04027000c8020000c0
:020000040000fa
:04027400c8020000bc
:020000040000fa
:04027800c8020000b8
:020000040000fa
:04027c00c8020000b4
:020000040000fa
:04028000c8020000b0
:020000040000fa
:04028400c8020000ac
:020000040000fa
:04028800c8020000a8
:020000040000fa
:04028c00c8020000a4
:020000040000fa
:04029000c8020000a0
:020000040000fa
:04029400c80200009c
:020000040000fa
:04029800c802000098
:020000040000fa
:04029c00c802000094
:020000040000fa
:0402a000c802000090
:020000040000fa
:0402a400c80200008c
:020000040000fa
:0402a800c802000088
:020000040000fa
:0402ac00c802000084
:020000040000fa
:0402b000c802000080
:020000040000fa
:0402b400c80200007c
:020000040000fa
:0402b800c802000078
:020000040000fa
:0402bc00c802000074
:020000040000fa
:0402c000c802000070
:020000040000fa
:0402c400c80200006c
:020000040000fa
:0402c800c802000068
:020000040000fa
:0402cc00c802000064
:020000040000fa
:0402d000c802000060
:020000040000fa
:0402d400c80200005c
:020000040000fa
:0402d800c802000058
:020000040000fa
:0402dc00c802000054
:020000040000fa
:0402e000c802000050
:020000040000fa
:0402e400c80200004c
:020000040000fa
:0402e800c802000048
:020000040000fa
:0402ec00c802000044
:020000040000fa
:0402f000c802000040
:020000040000fa
:0402f400c80200003c
:020000040000fa
:0402f800c802000038
:020000040000fa
:0402fc00c802000034
:020000040000fa
:04030000c80200002f
:020000040000fa
:04030400c80200002b
:020000040000fa
:04030800c802000027
:020000040000fa
:04030c00c802000023
:020000040000fa
:04031000c80200001f
:020000040000fa
:04031400c80200001b
:020000040000fa
:04031800c802000017
:020000040000fa
:04031c00c802000013
:020000040000fa
:04032000c80200000f
:020000040000fa
:04032400c80200000b
:020000040000fa
:04032800c802000007
:020000040000fa
:04032c00c802000003
:020000040000fa
:04033000c8020000ff
:020000040000fa
:04033400c8020000fb
:020000040000fa
:04033800c8020000f7
:020000040000fa
:04033c00c8020000f3
:020000040000fa
:04034000c8020000ef
:020000040000fa
:04034400c8020000eb
:020000040000fa
:04034800c8020000e7
:020000040000fa
:04034c00c8020000e3
:020000040000fa
:04035000c8020000df
:020000040000fa
:10040000afae20000eff20000e01880000000000ab
:10041000000020000000e000020032000001200087
:1004200020028800140007005b0007000000e000c5
:1004300003003a00c08b21000100200002003700b9
:100440000000200001002000810f70000100320038
:1004500014000700000020000000e000020032004d
:10046000000002000000000066180200000000000a
:100470000040da000000fe004440a900602b20008c
:100480000000e0000300320000002000a00188000e
:100490004440a800000006008a1f78008b1f7800e7
:1004a0000000060091018800800478000000eb0045
:1004b0001a003700e284440032a0b4009905ba0063
:1004c000e284440032a0b4009906ba00e2844400f9
:1004d00032a0b4000006eb00476fde00fd07b2005b
:1004e000636ce10003003a00ebff07000000eb0043
:1004f0000a003700606ce10004003a00005deb0088
:100500008b05e900fdff3e00040037006168e10053
:10051000010032000086eb000b00070019c7ba008b
:100520001905ba000e04e00003003a000a00e000da
:10053000e0ff3a0000000600fe07b2009e018800be
:100540008a047800f5ff3700395dba008b05e900b1
:100550000c003200295dba008b05e900080032006a
:100560000c00e00003003a00e284440032a0b40032
:10057000f5ff370019ddba008b05e900faff3a00f4
:100580008904e800e184440032a0b40000000600c1
:100590000040da000000fe00000005008001780045
:1005a00002003700b15978000201e9000200e000c2
:1005b000fcff3a00000006000000fa00cfb89700e8
:1005c00068815700df0107000080fa000000060084
:1005d000040007005c0007000c010700340107005d
:1005e0008e003700ec874700889fbe008a9fbe00c0
:1005f0008c9fbe008e1f78000006780001047800f2
:10060000180790002805900098067800cdb79f0045
:10061000b80590003202be002203be000400be00f6
:100620000601be004f18de006011b8008000eb002c
:10063000d0b79f00e1b79f00f2b79f0083bf9f0034
:10064000800478000900e000060032006000b80075
:100650006011b8000402500085825800060359005a
:10066000878359000e00e000020035000d10a10044
:10067000cdb79f000900e00005003a004fb0970099
:100680000028a30002003a000038a3000200320054
:100690008a00e900010037008a007800f8815700dd
:1006a000a200200008007800860007000900e00092
:1006b00003003a00cfb097000128a30008003200e1
:1006c0000000e90000814500b1c2b3000900e0006c
:1006d00001003200d1c2b3000149780005003700a3
:1006e0000138a300030032000000e90001c2b3009a
:1006f00081757800480190000201e9000001510075
:10070000808045004fb297008a0178000c00780085
:10071000a40107009c0090000188a300040032009f
:1007200098009000810f500001003d00010078000a
:100730004f0778004f06be004f05be004f04be00b5
:10074000cf00b100000006000200fa00889fbe0042
:100750008a9fbe000005780001047800020078003e
:1007600018019000a805900098007800b1bf9f0084
:10077000b80490000200e000020035000110a10062
:10078000b1bf9f00ea815700820020008b007800f3
:100790003002be002003be000800780049000700b8
:1007a0003fb99700f0006100030032000000e9004b
:1007b00001c3b300817478003fb99700e80061007d
:1007c000030032000000e90001c2b3008174780028
:1007d000480190000201e9000001510080804400be
:1007e0003fba97008b0178000a0078006d0107007e
:1007f0009a0090000188a300040032009800900045
:10080000810f500001003d00010078004f05be003f
:100810004f04be000080fa0000000600ea8747008f
:10082000889fbe008a9fbe008e1f7800000478005b
:10083000030078007287570084e2260055c726001f
:10084000049fbe00c3962200030f78006c875700f8
:10085000004feb0011059000a10490009105780075
:100860000200e000020032000207780001003700b9
:10087000728757000000e00002003a000e00780086
:100880007e0307000a00e000030035008a0f5000d5
:10089000010036000a0078000b0278008901780018
:1008a000000178008e007800080078003d01070004
:1008b0004f0778004f05be004f04be00af00b100e7
:1008c00000000600f4874700889fbe008a9fbe0094
:1008d0008c9fbe008e1f78000605be000404be007b
:1008e00081bf9f0082b79f00f3b79f00b0009000c8
:1008f000e1b79f001301780092b79f009006900027
:10090000400690000c06e9000d00e00001003d00eb
:100910001d002000efb197000c8041000048eb0063
:100920001e0020001f0037000c06e9000fb09700e2
:10093000cf80de006109b900a0b79f00b1b79f006a
:10094000c2b79f00d3b79f000203be000002be00e3
:100950000800be000a01be00660507000007780017
:10096000efb097000c80400003c3b300034847007a
:100970008d06e9000fb897000000e90080bf9f00d6
:100980002fb29700bfb297004fb39700dfb3970025
:100990000800be000a01be004f0507000205be00a8
:1009a0000004be000c00e0000d003200e00f540017
:1009b000e08f5c00e00f5d00e08f5d00daff3a0041
:1009c0000d00e000d8ff3c008fb897000100e00068
:1009d000030034001fb197000218a300d2ff3a00b1
:1009e0000e00e00002003a00ffb197001340a100a2
:1009f0000c0078004f0778004f06be004f05be0080
:100a00004f04be004f01b100000006000200fa00d2
:100a1000889fbe008a9fbe00800478000104780091
:100a200002007800180190002805900098007800d6
:100a3000b1bf9f00b80590000200e0000200350041
:100a40000110a100b1bf9f00ea815700a200200061
:100a50008a0078003002be002003be000800780043
:100a600098ff0700480190000201e90000015100d1
:100a7000808045003fba97008a017800090078001d
:100a8000c8000700990090000188a300040032000c
:100a900098009000810f500001003d000100780097
:100aa0004f05be004f04be000080fa0000000600a3
:100ab000fa874700889fbe008a9fbe008c9fbe00b9
:100ac0008e1f780080047800010478008205780089
:100ad000180190002805900018077800b8009000d1
:100ae0000200e000020035000e10a10001003700f6
:100af0001200200070006700e0b79f00090032007c
:100b00003b02be002b03be00e00f5200e08f5a00f4
:100b1000e00f5b00e08f5b00020032008a86e90094
:100b2000010037008a067800e8026700f5b79f00e9
:100b3000010032008d06e9003b02be002b03be001f
:100b4000e4af9f00f5af9f0086b79f0097b79f0067
:100b5000480690000c06e9000c8040000048eb00bd
:100b6000efb297007fb29700890378008104780084
:100b7000d8af9f00020478008bbf9f008a057800e1
:100b8000034578002a0037000c06e9006fab970098
:100b90006f006300e90f500002003c000003b0004a
:100ba000010037007005b0000a03fb001604b10015
:100bb000f90f53000c003e00000378000650a0001f
:100bc0001606b100f90f530007003e00b4b79f00ae
:100bd000a5b79f00c7b79f002a030700cfb39700b0
:100be000afb297003fb2970080747e000804e9001e
:100bf0008d06e9006fa89700ffa897000fb1970036
:100c00009fb19700460020008301d1000281d300ec
:100c10008180d3000080d3000603e900faff3a0088
:100c2000e0af9f00f1af9f0082b79f0093b79f0096
:100c3000e10f56000f0036006fa89700ffa897003d
:100c40000fb197009fb19700e00f5000e08f580060
:100c5000e00f5900e08f5900cbff3a000800e00098
:100c6000c9ff3c000d00e000020034000e18a30094
:100c7000c5ff3a0089007800f4b79f008704780028
:100c80005fac97008a4178000b0578008fbd970014
:100c90000500e000100032003b02be002b03be0046
:100ca000e4af9f00f5af9f0086b79f0097b79f0006
:100cb000e00f5200e08f5a00e00f5b00e08f5b0016
:100cc000050032000c06e90083707e000c06e90086
:100cd00000c3b30080707e00ffb297000500e00003
:100ce000030032000c06e90000c2b30080707e00f1
:100cf000480190000201e9000c0151008c80400085
:100d00000e0278008a0178000900780025000700ab
:100d1000990090000188a300040032009800900020
:100d2000810f500001003d00010078004f0778005e
:100d30004f06be004f05be004f04be00af01b1001c
:100d4000000006008201780001017800f1ff270011
:100d500062023700889fbe008a1f780080047800f6
:100d60004900900002047800800f54000100360012
:100d700000047800080178006a8544001a007800b1
:100d800006fe07001a004400000d7800e8844400c5
:100d9000990c14000048eb004f0578004f04be008a
:100da00000000600f2874700889fbe008a9fbe00b1
:100db0008c9fbe008e1f78008004780001057800ab
:100dc00002047800830578006107620002003a009f
:100dd0008b0f540008003900080178008a00780061
:100de00009007800dbff07008b0f54000200390078
:100df000880578001e003700088655000c01780031
:100e0000f00f560001003600020120000102200010
:100e10007e805700b60107008c0678000500370079
:100e200002012000fe80570009007800c9ff07007a
:100e3000f0865600ef8f5600f9ff3e004461de0059
:100e400000ff2f000091b90002014600fe8057000c
:100e500009007800bfff07000e00e00004003a0020
:100e6000080178008a00780009007800b9ff0700bf
:100e70000b0078004f0778004f06be004f05be00fc
:100e80004f04be002f01b100000006000000050065
:100e90000000050000000500000178000040eb00a4
:100ea0008080fb008180400023ad200063c2780079
:100eb0000404e00003003a0030ad200060c0780078
:100ec0000000060092017800934f520004003a009f
:100ed00030ad200060c078000309e8000100370051
:100ee0000040e800ea4f5000edff36000000060029
:100ef000f6874700889fbe008a9fbe008c9fbe0079
:100f00008e1f780080047800010478008305780043
:100f1000040678000000eb00c0b79f008080eb0063
:100f2000d1b79f00e0b79f00f2b79f0000082000f4
:100f300080bf9f0098007800010078000005eb005a
:100f4000010037000a05e800304178000204e000a3
:100f50000300320053c2b300834f5100f9ff3a003f
:100f60000a00e000040032000a017800090078005d
:100f700078ff0700180c45001807780050c2b3002e
:100f80009e4f100033013a000e07e8000e0c780067
:100f900010003700cfb097000100a0000b00370011
:100fa000cfb097000110a00008003700cfb0970025
:100fb0000120a00005003700cfb097000130a0004d
:100fc00002003700cfb097000140a000c1b79f00da
:100fd000000ce8001800780090407800b2c2b3001e
:100fe00082cf5000f1ff320007003c0002c2b30084
:100ff00082cf5000f0ff320032c2b30082cf5000e7
:1010000007003a00efff3700d2c2b30082cf500092
:10101000e0ff320002c3b30082cf5000e0ff320095
:10102000a2c2b30082cf50000d003a00000ce800cd
:101030001c80e900000e780010007800e0b79f00e7
:101040000000e0000f003d00cfb097000100a200bb
:10105000c1b79f000000ea00e0b79f000900370019
:10106000db010700e0b79f0001003700000ce8003b
:10107000180078009000fb000103b100e98f5000d8
:10108000faff36004fb097000008a30002003200bc
:101090000010a100c0b79f0018007800e1c2b300a3
:1010a00090cf100016003a008000eb00d1b79f00ef
:1010b0000000e800000c7800a1c2b30090cf10003f
:1010c00006003a00000ce8001c80e900000e7800e1
:1010d00010007800d0b79f0009003700bc0107005e
:1010e000d0b79f0001003700000ce800180078001e
:1010f0009000fb000103b100e98f5000faff3600b9
:101100000800780064ff0700804678001800780027
:101110001000fb00d401070091062000810f500051
:101120003800320012003c0041062000810f5000c0
:10113000340032000a003c0011062000810f5000ec
:101140002000320031062000810f50009a0032004a
:1011500051022000810f5000ae003a00a700370076
:1011600071062000810f5000aa003c008200370069
:1011700001072000810f50005c00320007003c0096
:10118000e1062000810f500074003200f1062000bb
:10119000810f50009f003a003900370051072000ae
:1011a000810f50002700320081072000810f50007e
:1011b0004200320031072000810f500095003a00b4
:1011c000850037008d80fb000c01780000fe2f00a9
:1011d0000f004000b20107000000e0009c00320058
:1011e00018007800000ce8009041780002fe2f0003
:1011f0000f014100f88057000900780024ff070024
:101200000e0037008d80fb008c017800120020005a
:1012100000fe2f000f004000c00107000000e000aa
:101220008b003200180ce80002fe2f000f01410075
:10123000f880570009007800eafc07000005450027
:10124000840037008d80fb008c0178000001eb00ea
:1012500000fe2f000f004000b00107000000e0007a
:101260007b003200180ce80002fe2f000f01410045
:10127000f880570009007800e4fd0700efff370011
:101280008d80fb008c0178000001eb0000fe2f0038
:101290000f004000a10107000000e0006c003200d8
:1012a000180ce80002fe2f000f014100f8805700e3
:1012b0000900780024fd0700e0ff37008d80fb0067
:1012c0008c0178000001eb0000fe2f000f004000b1
:1012d000920107000000e0005d0032001800780075
:1012e000000ce80090417800160037008c0178006f
:1012f0000001eb00010f200000fe2f000f00400056
:10130000860107000000e00051003200180ce800e0
:101310000fb097009fb097002fb19700bfb1970013
:10132000e00f5000e08f5800e00f5900e08f5900a7
:1013300003003a008001eb00c2ac200040003700ff
:1013400083c7b30002fe2f000f014100f880570051
:1013500009007800d6fd0700b8ff37000b014500f3
:101360008d80fb008c01780000fe2f000f004000f4
:10137000c3010700360037008d80fb000c017800a8
:1013800000fe2f000f004000450107000000e000b4
:101390002f00320018007800000ce800904178001f
:1013a00002fe2f000f014100f8805700090078006d
:1013b000b7fe0700a1ff370000c8b30080cf56007a
:1013c00023003a00180ce8001c80e900000e7800a9
:1013d000104078000d00370000c8b30080cf5600e1
:1013e0001b003a00180ce8001c80e900000e780091
:1013f0008001eb00100178001100370001c8b30034
:1014000081cf560012003a00180ce800e0df9f0080
:101410000800370050c2b300e0df9f000e0c7800d8
:101420000000eb00c0b79f00e0b79f008080eb009a
:10143000d1b79f0013002000e2fd2f000f014100f3
:10144000f880570009007800f4fc07007bff3700a4
:10145000180ce8000a0078004f0778004f06be001d
:101460004f05be004f04be006f01b1000000060032
:101470008200fa00889fbe008a1f7800000578006d
:1014800082047800c13f9f000004eb001000370089
:101490000902780088017800a2f72f000f014100af
:1014a00081f72f008f8040000a00780090fe07002f
:1014b00008004000880f500004003d00b0042000e8
:1014c000405788000084eb000400370000047800d7
:1014d0004f3897001004e000edff3a000800780054
:1014e0004f0578004f04be000080fa00000006009f
:1014f000889fbe008a9fbe00800478000200e00042
:101500005a00320001407800814c7800828144000a
:10151000f1f99f00e20f5100540036009144980009
:10152000a1449800e1f99f00d1f99f00e60f510016
:101530004e003600b1449800c1f99f00e80f5100f9
:101540004a0036000905ea00630565000a84440084
:101550000a055100c1ff2f00010565000080fb0056
:101560008000eb001210200013102000b2010700d1
:10157000008cbe000a01440060b99f0071b99f0051
:10158000e80f550039003600200498003104980017
:10159000400498005104980020b99f0031b99f0081
:1015a00040b99f0051b99f00f80f55002f00360039
:1015b0006004980071049800000c9800110c9800c9
:1015c000200c9800310c9800400c9800510c9800a9
:1015d00020b19f0031b19f0040b19f0051b19f00e9
:1015e00060b19f0071b19f0000b99f0011b99f00c9
:1015f00064016400780141000204440002055500c2
:101600006011b8000203be000002be000403be0069
:101610006022b80000007200818072000201730035
:10162000838173000f00370008027800009abe0023
:10163000029abe00009abe000292be00000c980002
:10164000110c9800220c9800330c9800400c980064
:10165000510c9800620c9800730c98000a02b100bb
:101660000802b000ff0f5500efff3e0009007800b0
:101670004f05be004f04be00000006008000780049
:10168000040037003104e00002003a00000051007d
:1016900000000600010178000108a300f9ff3a00ec
:1016a0008101780031017800f4ef2f00020242003e
:1016b0000281ea00020162000408280004016100be
:1016c000f7ff320083007800010178003104e00068
:1016d000fdff3a000000510000000600f2874700bd
:1016e0008e1f780002027800030178000000e000fd
:1016f00002003200000778000100370072875700af
:101700008002eb000100e000010032008102e900ec
:1017100070805700060009000018eb007280570027
:1017200000a8eb002310200093bf9f00aebf9f00d6
:10173000b1bf9f00c5bf9f000100e00004003d0055
:10174000b0042000405788000080eb0005003700ff
:10175000004feb00eebf9f00debf9f0084007800cb
:10176000030007004f0778002f01b10000000600ba
:101770000200fa00881f780000047800e2bf9f0092
:10178000648157000800780039ff07009800900036
:101790000148a300010032000080eb004f047800f4
:1017a0000080fa0000000600800078001000200091
:1017b00002022000828f500004003200e9805000b5
:1017c000e48f5000010036000000eb00000006002e
:1017d000889fbe008a1f7800800478000904780082
:1017e00088047800394578000a00fb00eeff070006
:1017f0000000e000f9ff3a00b0c2b300804f55008e
:1018000005003200d0c2b3008000eb00804f5500cd
:1018100005003a00020037008000eb0001003700ad
:10182000110020000804e8000000eb00030037006e
:101830006a02b900020052000003b0003801fb0048
:1018400003fd2f0082814100e98f5100f8ff36002f
:101850000100e00001003a000000ea004f057800b6
:101860004f04be0000000600f1fb2f008080400006
:10187000f98f500001003e000050a000000006005b
:10188000f9ff3700f1f92f0080804000f98f5000f8
:1018900001003e00f005b20000000600f9ff37002d
:1018a000881f78000004780000082000808f500016
:1018b0001700350010082000808f50000b00340006
:1018c00030082000808f500011003a00920078000c
:1018d00068805000000978003002be002003be007e
:1018e000049cbe000694be000700370092027800f8
:1018f00064805200000978001000be009a000700c2
:10190000009cbe000294be001000200001003700c1
:101910000000eb004f04780000000600840820005f
:10192000848f50001d0032000d003c001408200080
:10193000848f50002700320002003c000408200081
:101940000400370024082000848f50002a00320051
:1019500044082000848f500048003a003b003700c4
:10196000040a2000848f50002c00320004003c0048
:1019700004092000848f500040003a002d003700f9
:10198000020c2000828f50001e003200020f200047
:10199000828f500039003a00300037009380e90010
:1019a0000200e00005003200810978001102fb000e
:1019b000cfa2de00612bb9002d003700810978002d
:1019c000114278000482fb008002eb006033b80013
:1019d0002700370013027800e40052000200e00004
:1019e0000a003200810978001102be004fabde0010
:1019f000860378001e00370093027800e8805200ca
:101a00000e00370093027800e480520081097800cc
:101a10001102be006033b800150037009380e90062
:101a20008109780011027800cfa2de00612bb90095
:101a30000f00370013037800e80053008109780095
:101a40003102be002103be00090037009380e90087
:101a50000200e00002003200f1ff37009380e9004d
:101a600081097800110278008002eb006033b80031
:101a70000498be000690be0010000500000005009e
:101a800044082000848f5000270032000a003c00e8
:101a900014082000848f50001c003200240820000d
:101aa000848f50002600320004082000848f5000ec
:101ab0002c003a001c00370004092000848f5000dd
:101ac0001f00320004003c0084082000848f500076
:101ad00024003a0007003700040a2000848f5000d9
:101ae00011003200040c2000848f50001d003a00c9
:101af000060037009380e9008109780091007800a2
:101b00000108780082487800150037009380e900ca
:101b1000810978009100780001087800cf91de00fb
:101b20008288be000e0037009380e90081097800aa
:101b300091007800010878008208780008003700da
:101b40009380e9008109780091007800010878000d
:101b50006112b900612bb9008498be008690be0066
:101b60001000050000000500810378001d0007003b
:101b70000001be006000b8000478a30013003a0022
:101b80006220e10015003e000d0039008301d10004
:101b90000281d3008180d3008301d1000281d30070
:101ba0008180d3008301d1000281d3008180d300e2
:101bb0000538b000c42add00f300b2008381720052
:101bc00007f0a70003f0a0000000060083ff270035
:101bd000020020006110b900f9ff370003ff270061
:101be000f7ff3700c70ade00f107b200f50fb200b9
:101bf00008003200e1cf4200020032000170a00074
:101c000024000500810f7000010032000408050067
:101c100044000500810f700002003a001400050026
:101c20008502e9000000400081c04800fcff3b0045
:101c30000170a00024000500020ab900001bb900d1
:101c40000200b8008100420081004300000006004d
:101c5000889fbe008a9fbe0030044200b0844a00c4
:101c600030054b0090854b006000b1000898be0025
:101c70000a90be000440e10005c8e10006d0e10082
:101c800007d8e10002003100680040001008e800b9
:101c90004f05be004f04be0000000600889fbe0036
:101ca0008a9fbe003004be002005be000418540008
:101cb00005985c0006185d0007985d001100200083
:101cc0000440e10005c8e10006d0e10007d8e100ca
:101cd000010039008000eb00108810004f05be00a5
:101ce0004f04be0000000600f4874700889fbe0036
:101cf0008a9fbe008c9fbe008e1f7800d0b79f00c9
:101d0000e1b79f00f2b79f0083bf9f000605be00aa
:101d10000404be00cfae97000000eb00c0b79f00e8
:101d2000b0b79f00a0b79f0090b79f0080b79f00fb
:101d3000000678004fb09700000140000000e0006e
:101d400006003d003c0007000f0747004500070064
:101d50000f004000beff07000500370036000700f7
:101d60000f0747003f0007000f004000cbff0700b0
:101d70004fb797000e00e0000c0035005fb29700ef
:101d8000efb297007fb397008fbb97001000200041
:101d9000010020006011b800000272008182720010
:101da00002037300838373001c0007000c06e80025
:101db00001042000810f5600deff3a000e00e00013
:101dc00005003d000802be000a03be0000fe2f0011
:101dd0000f0040009eff07000d00e00005003a00e4
:101de0000fb297009fb297002fb39700bfb3970031
:101df0000a0007005fb09700efb097007fb197002f
:101e00008fb997004f0778004f06be004f05be0000
:101e10004f04be004f01b1000000060001000700a2
:101e20000000060094b79f00a5b79f00b6b79f00bb
:101e3000c7b79f00000006009fb097004f08de0064
:101e400002017000a2b79f000fb097004f01de00a3
:101e5000818040008100710091b79f000efe2f002d
:101e600000000600de0078004f09de0000004000a0
:101e70000000710080b79f006fa897004f01de003f
:101e800081804000010f71000e0007004f3ade0014
:101e90000000400004007000e0af9f000900070050
:101ea0000402420085824a0006034b0087834b00f0
:101eb000dcff07000802be000a03be0000fe2f0080
:101ec000000006001fb29700afb297003fb3970023
:101ed000cfb3970000000600881f7800180020008c
:101ee000881f780080ff07008f87e9004f04780083
:101ef00000000600801feb007bff07008f87e900d2
:101f000000000600889fbe008a9fbe00e00f5000c0
:101f1000e08f5800e00f5900e08f59000c003d00a1
:101f20006044b8006055b8000000540081805c0037
:101f300002015d0083815d0018002000150007008c
:101f400008003d00180007000004eb000500370002
:101f50000004eb000f00070002003d001200070024
:101f600018002000dcff07000800e0000600320037
:101f70006022b8006033b8000000520081805a002f
:101f800002015b0083815b004f05be004f04be0071
:101f900000000600e00f5200e08f5a00e00f5b00e7
:101fa000e08f5b00000006006044b8006055b80098
:101fb0000402540085825c0006035d0087835d0097
:101fc00000000600889fbe008a9fbe008c1f78001c
:101fd000e00f5000e08f5800e00f5900e08f5900eb
:101fe0000d003d006044b8006055b800000054008a
:101ff00081805c0002015d0083815d001c00200087
:102000000820e10009a8e1000ab0e1000bb8e100f6
:102010000d003d00080037000006eb00e00f520005
:10202000e08f5a00e00f5b00e08f5b0006003d0090
:102030006044b8006055b8000402540085825c001a
:1020400006035d0087835d00aaff07000c00e00027
:10205000060032006022b8006033b8000000520071
:1020600081805a0002015b0083815b004f0678008b
:0c2070004f05be004f04be00000006003b
:020000040000fa
:10207c003d3d00003d3d00003d3d00003d3d00006c
:10208c003d3d00003d3d0000204500005343000055
:10209c005249000042490000454e0000444f0000e8
:1020ac00204500004e2000004d4500004d4f000023
:1020bc00524900004120000025640000203d000032
:1020cc003d3d00003d3d00003d3d00003d3d00001c
:1020dc003d3d00003d3d00003d0d00000a000000ac
:1020ec004573000063720000697400006f200000eb
:1020fc00656e0000206d0000656d00006f720000c1
:10210c006961000020250000642000003078000088
:10211c002530000032580000206500006e200000c1
:10212c00646900007265000063630000696f000061
:10213c006e2000003d2000003078000025300000ab
:10214c0032580000200d00000a0000003d3d000048
:10215c003d3d00003d3d00003d3d00003d3d00008b
:10216c003d3d00002050000061670000696e0000da
:10217c0061200000636f00006d7000006c65000052
:10218c007461000020650000736300007269000038
:10219c0074610000206500006e2000006d65000079
:1021ac006d6f000072690000612000002564000062
:1021bc00203d00003d3d00003d3d00003d3d000048
:1021cc003d3d00003d3d00003d3d00003d0d00004b
:1021dc000a0000003d3d00003d3d00003d3d00007b
:1021ec003d3d00003d3d00003d3d0000204c000009
:1021fc0045590000454e0000444f0000204d0000a2
:10220c00454d00004f5200004941000020250000c0
:10221c00642000003d3d00003d3d00003d3d0000c0
:10222c003d3d00003d3d00003d3d00003d3d0000ba
:10223c000d0a000000440000617400006f200000d3
:10224c00656e0000206d0000656d00006f7200006f
:10225c006961000020250000642000003078000037
:10226c0025300000325800002c2000004164000092
:10227c007265000073730000203d000020300000e8
:10228c007825000030320000582000000d0a0000b4
:10229c00003d00003d3d00003d3d00003d3d000087
:1022ac003d3d00003d3d00003d2000005061000020
:1022bc00676900006e610000206300006f6d000014
:1022cc00706c000065740000612000006c650000fb
:1022dc00696400006120000064650000206d00004e
:1022ec00656d00006f720000696100002025000020
:1022fc00642000003d3d00003d3d00003d3d0000e0
:10230c003d3d00003d3d00003d3d00003d3d0000d9
:10231c000d0a0000003d00003d3d00003d3d000069
:10232c003d3d00003d3d00003d3d00003d200000d6
:10233c00436f00006d700000726f0000626100005e
:10234c00636900006f6e00002064000065200000cf
:10235c00766100006c6f0000726500007320000055
:10236c00656e0000206d0000656d00006f7200004e
:10237c006961000020250000642000003d3d000044
:10238c003d3d00003d3d00003d3d00003d3d000059
:10239c003d3d00003d3d00000d0a0000003d0000e9
:1023ac003d3d00003d3d00003d3d00003d3d000039
:1023bc003d3d00003d2000004279000074650000a6
:1023cc00732000006361000072670000616400000c
:1023dc006f730000206300006f72000072650000d4
:1023ec0063740000616d0000656e00007465000090
:1023fc00206500006e2000006d6500006d6f000010
:10240c007269000061200000312000003d3d000099
:10241c003d3d00003d3d00003d3d00003d3d0000c8
:10242c003d3d00003d3d00000d0a0000003d000058
:10243c003d3d00003d3d00003d3d00003d3d0000a8
:10244c003d3d00003d20000021450000525200009f
:10245c004f520000204500004e2000004c4100006f
:10246c00204300004152000047410000204400007e
:10247c004520000044410000544f00005320000050
:10248c00454e0000204d0000454d00004f5200000d
:10249c004941000020310000203d00003d3d00007e
:1024ac003d3d00003d3d00003d3d00003d3d000038
:1024bc003d3d00003d0d00000a0000003d3d0000c8
:1024cc003d3d00003d3d00003d3d00003d3d000018
:1024dc003d3d00002042000079740000657300004f
:1024ec00206300006172000067610000646f0000ef
:1024fc0073200000636f00007272000065630000bf
:10250c00746100006d6500006e74000065200000b1
:10251c00656e0000206d0000656d00006f7200009c
:10252c006961000020320000203d00003d3d0000ac
:10253c003d3d00003d3d00003d3d00003d3d0000a7
:10254c003d3d00003d0d00000a0000003d3d000037
:10255c003d3d00003d3d00003d3d00003d3d000087
:10256c003d3d00002021000045520000524f00006c
:10257c0052200000454e0000204c0000412000007d
:10258c004341000052470000412000004445000038
:10259c0020440000415400004f530000204500002f
:1025ac004e2000004d4500004d4f000052490000e8
:1025bc0041200000322000003d3d00003d3d000068
:1025cc003d3d00003d3d00003d3d00003d3d000017
:0c25dc003d3d00000d0a00000000000062
:020000040000fa
:1025e8000200fa00000f7800c862a800c842a900db
:1025f8001136800000fe2f00008060003000b3001c
:10260800103688002135800000fe2f000080600011
:102618003000b3002035880021e2a90021a2a900da
:102628002182a9002162a80001118000f0cf2f00ab
:10263800008060000011880020e2a90020c2a900e3
:1026480020a2a9002082a9002062a8000111800010
:1026580090ff2f0000806000001188002002a90070
:1026680023a2a90023e2a90011118000f0f32f0092
:10267800008060001011880023c2a9002362a9000d
:102688002342a80022a2a9002222a9009e007800c5
:102698004111880041058000f0ff2800808060001b
:1026a8000000250001007000400588008560a90031
:1026b8009560a8005105800080ff2f000080600011
:1026c8005000b300500588008580a9009580a900b6
:1026d80021e2a8000080fa00000006000000fa00cd
:1026e800d002a800d022a900d042a900d062a90037
:1026f800d422a9004135800000fe2f000080600030
:102708000040a0004035880081368000f00f2e0080
:102718008080600000702000010070008036880012
:102728009136800000fe2f00008060000030a0007d
:102738009036880041e2a90041a2a90040c2a90040
:102748004022a9004002a9004382a9004362a900cf
:102758004342a9004322a90042c2a9004302a9009a
:1027680042e2a90042a2a80011128000c0ff2f0077
:10277800008060000000a000101288001112800084
:1027880030fe2f00008060008001b3001012880026
:1027980045e2a90045c2a90045a2a9004422a90012
:1027a8008540a9008520a9009540a9009520a90089
:1027b80041058000f0f82f008080600000062000ae
:1027c800010070004005880041058000f0f82f00e6
:1027d800808060000006200001007000400588002d
:1027e800d462a80041e2a8000080fa0000000600b8
:1027f8000200fa00004f780000000000111180006c
:1028080000202000008060000000e000fbff3a008c
:102818001e00fb00201188000080fa00000006005e
:102828000200fa00000f7800040037001e0078004c
:10283800104078001e0fe800edff07001e0078002a
:10284800104078000004e000f8ff3a000080fa0029
:10285800000006000800fa00640147000089be0075
:102868006000b800008fbe000500370000000000bf
:1028780012002000030020001e0f41005e9749004f
:102888006600470090007800800c20000088b9009e
:102898000001780064004700100078006000b9006b
:1028a80000007800000141006400470090007800b3
:1028b800800c20000008b800010141008200780067
:1028c800be0f5000ae8f5800e8ff3e000080fa00af
:1028d800000006000200fa00004f78000000000027
:1028e80000128000620060000000e000fcff3a0077
:1028f8001e80fb00401288000000000000128000cb
:10290800610060000000e000fcff3200401280001f
:10291800004078000080fa00000006000a00fa0073
:102928006601470000097800680047000108780040
:102938000000eb00000f7800430037008000eb0038
:102948000e80e80001087800360037000e80e800a5
:102958001000780000004000e60047009100780071
:1029680000804000100178000e80e8001000780018
:102978000000e80000004000e600470091007800f1
:102988000080400010007800800f510020003400c3
:102998000e80e8001000780000004000e6004700c4
:1029a800910078008080400064004700110878009a
:1029b8000e80e8001000780000004000e6004700a4
:1029c80091007800808040000e80e80010007800b8
:1029d8000000e8000000400066014700120178008e
:1029e8000000410010007800800878000e80e800a0
:1029f800100078000000e80000004000e6004700f2
:102a08009100780000804000e40047001108780039
:102a18000e80e800100078008000e8000e80e800d2
:102a28000108780068004700100078001e00500078
:102a38000000e9008e80e80091007800810f5000c6
:102a4800c2ff3c001e0fe800680047001000780035
:102a58000000e9009e0f5000b8ff3c000080fa001b
:102a6800000006000c00fa0064024700000a780023
:102a780066004700010878006800470002087800ef
:102a88006a00470003087800680047009000780053
:102a98006400470010007800a0ff07006a004700a4
:102aa8009000780066004700100078009bff070040
:102ab8000000eb00000f7800160037001e007800b9
:102ac80000004000e40047009100780000804000ca
:102ad800100178001e00780000004000e600470062
:102ae800910078000080400010007800800f5100ad
:102af800040032008000eb000e80e8000108780036
:102b080003003700110020000e80e800010878005b
:102b18001e0fe80068004700100078009e0078004b
:102b2800808f5000e5ff35000e80e8001000780027
:102b38000080fa00000006000400fa008e80e80019
:102b4800800878000e80e800100078000000e80097
:102b5800801f7800e0032900801f78000080200093
:102b680093f60700e4875700008020002cff070039
:102b7800401f20000100200036ff07000000eb0086
:102b8800000f78008b0037000e80e80010007800f6
:102b980000407800614060000080fb006100600038
:102ba8004300dd00a11680000130a1000100700083
:102bb800a0168800500020000100200025ff070013
:102bc80060c0b30043ff0700500020000100200050
:102bd80020ff07000e80e8001000780000f0a70032
:102be8000000ea000000e9004f00de000040780025
:102bf8000080fb00610060004300dd00a11680003a
:102c08000130a10001007000a01688000e80e800c5
:102c18001000780000407800614060000080fb00f0
:102c2800610060004300dd00a11680000130a100b2
:102c380001007000a016880050002000010020004c
:102c480004ff070020c0b30022ff07000040eb008c
:102c580020ff07001e007800004078001dff0700d5
:102c68001e007800004078001aff07000e80e80078
:102c7800100078000000e00006003a001e0078000e
:102c880080004000a08c2000008040001e087800d2
:102c9800050037001e00780080004000a09c20003e
:102ca800008040001e08780050002000010020002d
:102cb800e8fe07000e80e8001000780000f0a7008a
:102cc8000000ea000000e9004f00de000040780044
:102cd8000080fb00610060004300dd00a116800059
:102ce8000130a10001007000a01688000e80e800e5
:102cf800100078000000e8009e1f78009e1f7800f2
:102d0800801f780060072900801f7800008020005d
:102d180027f60700e887570000802000c0fe07005c
:102d28000e80e800100078000040780061406000e4
:102d38000080fb00610060004300dd00a1168000f8
:102d48000130a10001007000a0168800500020008a
:102d580001002000bffe070040c0b300ddfe0700f1
:102d68005000200001002000bafe07000e80e80095
:102d78001000780000f0a7000000ea000000e90059
:102d88004f00de00004078000080fb00610060001a
:102d98004300dd00a11680000130a1000100700091
:102da800a01688004006200001002000a9fe0700a8
:102db8001e0fe800f00320009e007800808f50006e
:102dc80071ff34000e80e800100078000000e80071
:102dd800801f7800c00a2900801f7800008020002a
:102de800f3f50700e4875700008020008cfe0700f9
:102df800007d20000100200096fe07000080fa00f8
:102e0800000006000400fa008e80e80080087800c0
:102e18000e80e800100078000000e800801f7800ad
:102e2800000f2900801f780000802000e0f50700cf
:102e3800e4875700401f20000100200085fe07009e
:102e48000080200076fe07000000eb00000f7800ed
:102e5800520037000e80e80010007800004078002b
:102e6800614060000080fb00610060004300dd00fd
:102e7800a11680000130a10001007000a016880092
:102e8800500020000100200072fe070030c0b3008f
:102e980090fe07000040eb008efe07001e00780041
:102ea800004078008bfe07000040eb0089fe070019
:102eb800c8e8b700500020000100200065fe0700a8
:102ec8000e80e8001000780000f0a7000000ea007b
:102ed8000000e9004f00de00004078000080fb00a1
:102ee800610060004300dd00a11680000130a100f0
:102ef80001007000a016880050002000010020008a
:102f080054fe07000e80e800100078000000e00082
:102f180008003a00c8c8bf000081fb001e00780006
:102f280080004000a0942000008040000208780043
:102f380007003700c8c8bf000081fb001e007800ea
:102f480080004000a0a42000008040000208780013
:102f5800c8c8bf008080fb000e80e8001000780021
:102f68000000e8009e1f7800811f7800801f78000d
:102f780010122900801f7800008020008cf50700bf
:102f8800e88757000080200025fe07004006200043
:102f9800010020002ffe07001e0fe800f0032000ac
:102fa8009e007800808f5000aaff34000e80e80051
:102fb800100078000000e800801f7800f014290055
:102fc800801f78000080200079f50700e48757000b
:102fd8000080200012fe0700007d20000100200074
:102fe8001cfe07000080fa00000006000200fa003c
:102ff800000f78001e00e800801f780010192900d3
:10300800801f78000080200069f50700e4875700da
:103018000080200002fe07001e0078000000e0008b
:1030280011003a000304200002042000a18c2000b3
:10303800a09420008bfe0700e10f500005003a0025
:1030480082042000511d29000080200051f507004e
:103058001500370072042000d121290000802000cb
:103068004cf507001000370003042000020420007c
:10307800a19c2000a0a420007afe0700e10f5000c8
:1030880005003a0082042000412629000080200023
:1030980040f507000400370072042000c12a290007
:1030a800008020003bf5070000802000dcfd0700c1
:1030b800007d200001002000e6fd07000080fa00e6
:1030c800000006000000fa0060022000303a880084
:1030d800213a8000f0f32f0000806000203a880039
:1030e800213a800000fe2f0000806000203a88000e
:1030f80000000000113a80000002200000806000fb
:103108000000e000fbff32000080eb00601988003f
:103118001041200032fd070070fd070081e0a90082
:1031280011028000f0f12f0000806000100288007a
:10313800803e200001002000c6fd07005056800098
:103148007dfe0700505680002eff07005056800075
:10315800a6ff07005056800000f0a7000000ea0014
:103168000000e9004f00de0050568800f3ff3700ea
:020000040000fa
:1031780000080000cc02000000000000cc0a00009b
:103188001c00000002000000286e69006c29000085
:1031980068076c00094c83006a907400a07ac0002c
:1031a80000806800880084006c82000081000000b4
:1031b800e80a000002000000000000000000000013
:020000040000fa
:0200000401f009
:04000000ffffff00ff
:020000040000fa
:0200000401f009
:04000800ffffff00f7
:020000040000fa
:0200000401f009
:04000c00830000006d
:020000040000fa
:0200000401f009
:040010008400000068
:020000040000fa
:0200000401f009
:04001400df00000009
:020000040000fa
:0200000401f009
:04001800f7000000ed
:020000040000fa
:0200000401f009
:04001c00dfff000002
:00000001FF
